:020000040000FA
:0400000080311A2809
:100008007E1480318B1D09280A2818280B1C0D28FE
:100018000E28182882315C2280313430F000F2300A
:10002800890B1428F00B14287E10090080311C2835
:100038002000C901CA01CB01CC01CD01CE01CF01FD
:10004800D0017E1020008031A82801302000B000A7
:100058000030B1000030B2000030B3000030B4000E
:100068000030B5000030B6000030B7004908A000E5
:100078004A08A1004B08A2004C08A3004D08A400A0
:100088004E08A5004F08A6005008A7005830AF003A
:100098005130AE00F430AD002D30AC004C30AB0028
:1000A8009530AA007F30A9002D30A8008131752134
:1000B800803120002030860000308700403FB007A4
:1000C800413FB13D423FB23D433FB33D443FB43D64
:1000D800453FB53D463FB63D473FB73D3708D000A1
:1000E8003608CF003508CE003408CD003308CC00E0
:1000F8003208CB003108CA003008C90049308600F0
:1001080000308700403FB000413FB100423FB2009D
:10011800433FB300443FB400453FB500463FB600F7
:10012800473FB70031302000B736B60CB50CB40CD9
:10013800B30CB20CB10CB00C890B97282000310815
:10014800FB003008FA0008008231522280318B17F8
:100158000B1706302000C2004208C600C701C801BC
:1001680020000C1CB828B928D728470348040319CD
:10017800BE28BF28D7284808BF004708BE008131DD
:10018800F321803120003E08C2004208C600C401A5
:10019800C5014608C200C3014208F1004308F20045
:1001A8008131C121803120004508803AC200BA302F
:1001B8004202031DE12898304402031CE428E52884
:1001C800082922008C120C120C118C1063002000DC
:1001D800C401C501C701C8014608C200C3014208DD
:1001E800F1004308F2008131C1218031093020003B
:1001F800C3001E30C200E430890B0029C20B00295D
:10020800C30B00290000B42803302000C200973037
:10021800890B0C29C20B0C29003220004408013E2E
:10022800C4000030453DC5004708013EC700003006
:10023800483DC800B42880311A282000BD01BB1FE2
:10024800262927292E29BA09BB09BA0A0319BB0A84
:10025800BD01BD0AB91F312932293729B809B909A1
:10026800B80A0319B90A3808390403193C293D2981
:100278006629BC01BC0A49290130B835B90D890B7A
:1002880041290130FC007C08BC07B91F4C294D29C5
:10029800402939083B02031D532938083A02031C38
:1002A800562957295B293808BA023908BB3B01305F
:1002B800B936B80C890B5C290130BC02031D6529CD
:1002C80066294D293D0803196A296B297029BA093D
:1002D800BB09BA0A0319BB0A3B08B9003A08B800B7
:1002E800080072308600003087000830F1000030C6
:1002F8001E00F10B7C292000201C832984299429C5
:100308002808F2072908F33D2A08F43D2B08F53D93
:100318002C08F63D2D08F73D2E08F83D2F08F93D2D
:10032800A835A90DAA0DAB0DAC0DAD0DAE0DAF0DD9
:10033800A736A60CA50CA40CA30CA20CA10CA00C0F
:100348002008210422042304240425042604270465
:10035800031DAF29B0297F297208A0007308A100E6
:100368007408A2007508A3007608A4007708A50001
:100378007808A6007908A700080022008C120C1241
:100388000C118C10D9298C14F2290C16F2290C1690
:100398008C14F2298C160C15F2298C160C158C1459
:1003A800F2298C160C160C15F2297208003A03195A
:1003B800DE29F2297108013A0319C729033A0319FA
:1003C800C929013A0319CB29073A0319CE29013A59
:1003D8000319D129033A0319D529F2290800200065
:1003E8003F08F2003E08F1008231312281310630A7
:1003F8002000B8000030B9008031292081317B0805
:100408002000BB007A08BA00813121218131200007
:100418003808013EC0000030393DC1004108BF0026
:100428004008BE00080022008C01093021008C0021
:1004380023008C0124008C012100951722009D01C6
:1004480027001310121011147630F1000230F20058
:1004580082316C2282318B1508007108FF3EF3004F
:10046800FF30723DF40073082000C9007408CA0008
:10047800CB01CC01CD01CE01CF01D0010800200075
:10048800510852040319492A4A2A4F2A52088A0055
:1004980051080A0082312700131008008231172200
:1004A80082318231652282318231722282310800A2
:1004B8002700131C602A612A642A82314322823170
:1004C8000800723021009900980122009601080066
:1004D80072082000D2007108D100080016302100EF
:0604E80097000800080067
:020000040001F9
:04000E00E43FFF3E8E
:00000001FF
