:020000040000FA
:040000008131DA2947
:100008007E1480318B1D09280A28D8290B1C0D283D
:100018000E28D82983314523803106302000B800C6
:100028000030B9008131E92180317A082000BB0015
:100038007908BA0082316822803101302000C2007C
:100048000030C300AB29031022008C1C03140318D2
:100058002E28312822008C14332822008C100330DB
:100068002000BD000830BC007730890B3928BC0B54
:100078003928BD0B3928031022008C1C03140318DF
:100088004628492822008C144B2822008C10033063
:100098002000BD000830BC007730890B5128BC0B0C
:1000A8005128BD0B5128C529031022000C1E03142A
:1000B80003185F28622822000C16642822000C12FC
:1000C80003302000BD000830BC007730890B6A2857
:1000D800BC0B6A28BD0B6A28031022000C1E0314EF
:1000E800031877287A2822000C167C2822000C1284
:1000F8004B28031022000C1E031403188428872899
:1001080022000C16892822000C1203108C1C0314E0
:1001180003188F28922822008C14942822008C100F
:1001280003302000BD000830BC007730890B9A28C6
:10013800BC0B9A28BD0B9A28031022000C1E03142E
:100148000318A728AA2822000C16AC2822000C1293
:1001580003108C1C03140318B228B52822008C1431
:10016800B72822008C104B28031022008C1E031481
:100178000318BF28C22822008C16C42822008C121B
:1001880003100C1D03140318CA28CD2822000C15CF
:10019800CF2822000C1103302000BD000830BC001D
:1001A8007730890BD528BC0BD528BD0BD528031073
:1001B80022008C1E03140318E228E52822008C165E
:1001C800E72822008C1203100C1D03140318ED28D5
:1001D800F02822000C15F22822000C114B280310DD
:1001E80022008C1E03140318FA28FD2822008C16FE
:1001F800FF2822008C1203100C1D03140318052974
:10020800082922000C150A2922000C1103108C1C45
:10021800031403181029132922008C14152922000D
:100228008C1003302000BD000830BC007730890BEB
:100238001B29BC0B1B29BD0B1B29031022008C1E7C
:100248000314031828292B2922008C162D29220093
:100258008C1203100C1D03140318332936292200AD
:100268000C15382922000C1103108C1C03140318D8
:100278003E29412922008C14432922008C104B2846
:10028800031022008C1E031403184B294E29220048
:100298008C16502922008C1203100C1D031403180D
:1002A8005629592922000C155B2922000C1103102C
:1002B8000C1E031403186129642922000C166629F0
:1002C80022000C1203108C1C031403186C296F29CC
:1002D80022008C14712922008C1003302000BD00EC
:1002E8000830BC007730890B7729BC0B7729BD0B08
:1002F8007729031022008C1E0314031884298729E8
:1003080022008C16892922008C1203100C1D03145C
:1003180003188F29922922000C15942922000C1108
:1003280003100C1E031403189A299D2922000C1689
:100338009F2922000C1203108C1C03140318A529F2
:10034800A82922008C14AA2922008C104B282000EE
:100358004308003A0319B129C5294208013A03198B
:100368002728033A03195828013A03197D28073A20
:100378000319B828013A0319F328033A0319442941
:10038800C52901302000C2070030C33D4308803A28
:10039800BC0080303C02031DD32907304202031CF5
:1003A800D629D729AB290B107E1009008131DC2909
:1003B8002000C401C501C601C701C801C901CA019D
:1003C800CB017E10200083314E2B01302000B0007D
:1003D8000030B1000030B2000030B3000030B4008B
:1003E8000030B5000030B6000030B7004408A00067
:1003F8004508A1004608A2004708A3004808A40031
:100408004908A5004A08A6004B08A7005830AF00C5
:100418005130AE00F430AD002D30AC004C30AB00A4
:100428009530AA007F30A9002D30A8008231BC2267
:10043800813120002030860000308700403FB0071F
:10044800413FB13D423FB23D433FB33D443FB43DE0
:10045800453FB53D463FB63D473FB73D3708CB0022
:100468003608CA003508C9003408C8003308C70070
:100478003208C6003108C5003008C4004430860080
:1004880000308700403FB000413FB100423FB2001A
:10049800433FB300443FB400453FB500463FB60074
:1004A800473FB70031302000B736B60CB50CB40C56
:1004B800B30CB20CB10CB00C890B572A20003108D0
:1004C800FA003008F9000800FD012000BB1F6D2A62
:1004D8006E2A752ABA09BB09BA0A0319BB0AFD01B3
:1004E800FD0AB91F782A792A7E2AB809B909B80AF3
:1004F8000319B90A380839040319832A842AAD2A4A
:10050800FC01FC0A902A0130B835B90D890B882AFC
:100518000130FB007B08FC07B91F932A942A872A1D
:1005280039083B02031D9A2A38083A02031C9D2AFF
:100538009E2AA22A3808BA023908BB3B0130B936CC
:10054800B80C890BA32A0130FC02031DAC2AAD2A82
:10055800942A7D080319B12AB22AB72ABA09BB0915
:10056800BA0A0319BB0A3B08B9003A08B8000800E0
:1005780071308600003087000830F00000301E001F
:10058800F00BC32A2000201CCA2ACB2ADB2A280801
:10059800F1072908F23D2A08F33D2B08F43D2C0801
:1005A800F53D2D08F63D2E08F73D2F08F83DA835F6
:1005B800A90DAA0DAB0DAC0DAD0DAE0DAF0DA73647
:1005C800A60CA50CA40CA30CA20CA10CA00C200832
:1005D8002104220423042404250426042704031DDB
:1005E800F62AF72AC62A7108A0007208A100730823
:1005F800A2007408A3007508A4007608A50077086F
:10060800A6007808A700080022008C010930210004
:100618008C0023008C0124008C01210095172200F6
:100628009D01270013101214111461302100A0003D
:100638000330A10083313C2383318B15080020004F
:100648004C084D040319292B2A2B2F2B4D088A00FF
:100658004C080A008331270013100800833108234F
:10066800833183315623833183315D2383310800FD
:10067800210021082000CD00210020082000CC0006
:1006880008002700131C492B4A2B4D2B83312323A9
:10069800833108008331322383318B170B17532B97
:1006A8008131DA29723021009900980122009601DF
:0C06B80008001630210097000800080020
:020000040001F9
:04000E00E43FFF3E8E
:00000001FF
